{
  "_format": "hh-sol-artifact-1",
  "contractName": "UpgradableWorld",
  "sourceName": "contracts/UpgradableWorld.sol",
  "abi": [
    {
      "inputs": [],
      "stateMutability": "nonpayable",
      "type": "constructor"
    },
    {
      "anonymous": false,
      "inputs": [
        {
          "indexed": true,
          "internalType": "address",
          "name": "owner",
          "type": "address"
        },
        {
          "indexed": true,
          "internalType": "address",
          "name": "approved",
          "type": "address"
        },
        {
          "indexed": true,
          "internalType": "uint256",
          "name": "tokenId",
          "type": "uint256"
        }
      ],
      "name": "Approval",
      "type": "event"
    },
    {
      "anonymous": false,
      "inputs": [
        {
          "indexed": true,
          "internalType": "address",
          "name": "owner",
          "type": "address"
        },
        {
          "indexed": true,
          "internalType": "address",
          "name": "operator",
          "type": "address"
        },
        {
          "indexed": false,
          "internalType": "bool",
          "name": "approved",
          "type": "bool"
        }
      ],
      "name": "ApprovalForAll",
      "type": "event"
    },
    {
      "anonymous": false,
      "inputs": [
        {
          "indexed": true,
          "internalType": "address",
          "name": "previousOwner",
          "type": "address"
        },
        {
          "indexed": true,
          "internalType": "address",
          "name": "newOwner",
          "type": "address"
        }
      ],
      "name": "OwnershipTransferred",
      "type": "event"
    },
    {
      "anonymous": false,
      "inputs": [
        {
          "indexed": true,
          "internalType": "address",
          "name": "from",
          "type": "address"
        },
        {
          "indexed": true,
          "internalType": "address",
          "name": "to",
          "type": "address"
        },
        {
          "indexed": true,
          "internalType": "uint256",
          "name": "tokenId",
          "type": "uint256"
        }
      ],
      "name": "Transfer",
      "type": "event"
    },
    {
      "inputs": [
        {
          "internalType": "address",
          "name": "to",
          "type": "address"
        },
        {
          "internalType": "uint256",
          "name": "tokenId",
          "type": "uint256"
        }
      ],
      "name": "approve",
      "outputs": [],
      "stateMutability": "nonpayable",
      "type": "function"
    },
    {
      "inputs": [
        {
          "internalType": "address",
          "name": "owner",
          "type": "address"
        }
      ],
      "name": "balanceOf",
      "outputs": [
        {
          "internalType": "uint256",
          "name": "",
          "type": "uint256"
        }
      ],
      "stateMutability": "view",
      "type": "function"
    },
    {
      "inputs": [
        {
          "internalType": "uint256",
          "name": "tokenId",
          "type": "uint256"
        }
      ],
      "name": "getApproved",
      "outputs": [
        {
          "internalType": "address",
          "name": "",
          "type": "address"
        }
      ],
      "stateMutability": "view",
      "type": "function"
    },
    {
      "inputs": [
        {
          "internalType": "address",
          "name": "owner",
          "type": "address"
        },
        {
          "internalType": "address",
          "name": "operator",
          "type": "address"
        }
      ],
      "name": "isApprovedForAll",
      "outputs": [
        {
          "internalType": "bool",
          "name": "",
          "type": "bool"
        }
      ],
      "stateMutability": "view",
      "type": "function"
    },
    {
      "inputs": [],
      "name": "name",
      "outputs": [
        {
          "internalType": "string",
          "name": "",
          "type": "string"
        }
      ],
      "stateMutability": "view",
      "type": "function"
    },
    {
      "inputs": [],
      "name": "owner",
      "outputs": [
        {
          "internalType": "address",
          "name": "",
          "type": "address"
        }
      ],
      "stateMutability": "view",
      "type": "function"
    },
    {
      "inputs": [
        {
          "internalType": "uint256",
          "name": "tokenId",
          "type": "uint256"
        }
      ],
      "name": "ownerOf",
      "outputs": [
        {
          "internalType": "address",
          "name": "",
          "type": "address"
        }
      ],
      "stateMutability": "view",
      "type": "function"
    },
    {
      "inputs": [],
      "name": "renounceOwnership",
      "outputs": [],
      "stateMutability": "nonpayable",
      "type": "function"
    },
    {
      "inputs": [
        {
          "internalType": "address",
          "name": "to",
          "type": "address"
        },
        {
          "internalType": "string",
          "name": "uri",
          "type": "string"
        }
      ],
      "name": "safeMint",
      "outputs": [],
      "stateMutability": "nonpayable",
      "type": "function"
    },
    {
      "inputs": [
        {
          "internalType": "address",
          "name": "from",
          "type": "address"
        },
        {
          "internalType": "address",
          "name": "to",
          "type": "address"
        },
        {
          "internalType": "uint256",
          "name": "tokenId",
          "type": "uint256"
        }
      ],
      "name": "safeTransferFrom",
      "outputs": [],
      "stateMutability": "nonpayable",
      "type": "function"
    },
    {
      "inputs": [
        {
          "internalType": "address",
          "name": "from",
          "type": "address"
        },
        {
          "internalType": "address",
          "name": "to",
          "type": "address"
        },
        {
          "internalType": "uint256",
          "name": "tokenId",
          "type": "uint256"
        },
        {
          "internalType": "bytes",
          "name": "_data",
          "type": "bytes"
        }
      ],
      "name": "safeTransferFrom",
      "outputs": [],
      "stateMutability": "nonpayable",
      "type": "function"
    },
    {
      "inputs": [
        {
          "internalType": "address",
          "name": "operator",
          "type": "address"
        },
        {
          "internalType": "bool",
          "name": "approved",
          "type": "bool"
        }
      ],
      "name": "setApprovalForAll",
      "outputs": [],
      "stateMutability": "nonpayable",
      "type": "function"
    },
    {
      "inputs": [
        {
          "internalType": "uint256",
          "name": "tokenId",
          "type": "uint256"
        },
        {
          "internalType": "string",
          "name": "metadataURI",
          "type": "string"
        }
      ],
      "name": "setTokenURI",
      "outputs": [],
      "stateMutability": "nonpayable",
      "type": "function"
    },
    {
      "inputs": [
        {
          "internalType": "bytes4",
          "name": "interfaceId",
          "type": "bytes4"
        }
      ],
      "name": "supportsInterface",
      "outputs": [
        {
          "internalType": "bool",
          "name": "",
          "type": "bool"
        }
      ],
      "stateMutability": "view",
      "type": "function"
    },
    {
      "inputs": [],
      "name": "symbol",
      "outputs": [
        {
          "internalType": "string",
          "name": "",
          "type": "string"
        }
      ],
      "stateMutability": "view",
      "type": "function"
    },
    {
      "inputs": [
        {
          "internalType": "uint256",
          "name": "tokenId",
          "type": "uint256"
        }
      ],
      "name": "tokenURI",
      "outputs": [
        {
          "internalType": "string",
          "name": "",
          "type": "string"
        }
      ],
      "stateMutability": "view",
      "type": "function"
    },
    {
      "inputs": [
        {
          "internalType": "address",
          "name": "from",
          "type": "address"
        },
        {
          "internalType": "address",
          "name": "to",
          "type": "address"
        },
        {
          "internalType": "uint256",
          "name": "tokenId",
          "type": "uint256"
        }
      ],
      "name": "transferFrom",
      "outputs": [],
      "stateMutability": "nonpayable",
      "type": "function"
    },
    {
      "inputs": [
        {
          "internalType": "address",
          "name": "newOwner",
          "type": "address"
        }
      ],
      "name": "transferOwnership",
      "outputs": [],
      "stateMutability": "nonpayable",
      "type": "function"
    }
  ],
  "bytecode": "0x60806040523480156200001157600080fd5b506040518060400160405280600f81526020017f55706772616461626c65576f726c6400000000000000000000000000000000008152506040518060400160405280600481526020017f57524c4400000000000000000000000000000000000000000000000000000000815250816000908051906020019062000096929190620001a6565b508060019080519060200190620000af929190620001a6565b505050620000d2620000c6620000d860201b60201c565b620000e060201b60201c565b620002bb565b600033905090565b6000600760009054906101000a900473ffffffffffffffffffffffffffffffffffffffff16905081600760006101000a81548173ffffffffffffffffffffffffffffffffffffffff021916908373ffffffffffffffffffffffffffffffffffffffff1602179055508173ffffffffffffffffffffffffffffffffffffffff168173ffffffffffffffffffffffffffffffffffffffff167f8be0079c531659141344cd1fd0a4f28419497f9722a3daafe3b4186f6b6457e060405160405180910390a35050565b828054620001b49062000256565b90600052602060002090601f016020900481019282620001d8576000855562000224565b82601f10620001f357805160ff191683800117855562000224565b8280016001018555821562000224579182015b828111156200022357825182559160200191906001019062000206565b5b50905062000233919062000237565b5090565b5b808211156200025257600081600090555060010162000238565b5090565b600060028204905060018216806200026f57607f821691505b602082108114156200028657620002856200028c565b5b50919050565b7f4e487b7100000000000000000000000000000000000000000000000000000000600052602260045260246000fd5b6131e980620002cb6000396000f3fe608060405234801561001057600080fd5b50600436106101165760003560e01c8063715018a6116100a2578063b88d4fde11610071578063b88d4fde146102cb578063c87b56dd146102e7578063d204c45e14610317578063e985e9c514610333578063f2fde38b1461036357610116565b8063715018a6146102695780638da5cb5b1461027357806395d89b4114610291578063a22cb465146102af57610116565b8063162094c4116100e9578063162094c4146101b557806323b872dd146101d157806342842e0e146101ed5780636352211e1461020957806370a082311461023957610116565b806301ffc9a71461011b57806306fdde031461014b578063081812fc14610169578063095ea7b314610199575b600080fd5b610135600480360381019061013091906120d8565b61037f565b604051610142919061259b565b60405180910390f35b610153610461565b60405161016091906125b6565b60405180910390f35b610183600480360381019061017e919061212a565b6104f3565b6040516101909190612534565b60405180910390f35b6101b360048036038101906101ae919061209c565b610578565b005b6101cf60048036038101906101ca9190612153565b610690565b005b6101eb60048036038101906101e69190611f42565b61071a565b005b61020760048036038101906102029190611f42565b61077a565b005b610223600480360381019061021e919061212a565b61079a565b6040516102309190612534565b60405180910390f35b610253600480360381019061024e9190611edd565b61084c565b6040516102609190612838565b60405180910390f35b610271610904565b005b61027b61098c565b6040516102889190612534565b60405180910390f35b6102996109b6565b6040516102a691906125b6565b60405180910390f35b6102c960048036038101906102c4919061200c565b610a48565b005b6102e560048036038101906102e09190611f91565b610a5e565b005b61030160048036038101906102fc919061212a565b610ac0565b60405161030e91906125b6565b60405180910390f35b610331600480360381019061032c9190612048565b610ad2565b005b61034d60048036038101906103489190611f06565b610bca565b60405161035a919061259b565b60405180910390f35b61037d60048036038101906103789190611edd565b610c5e565b005b60007f80ac58cd000000000000000000000000000000000000000000000000000000007bffffffffffffffffffffffffffffffffffffffffffffffffffffffff1916827bffffffffffffffffffffffffffffffffffffffffffffffffffffffff1916148061044a57507f5b5e139f000000000000000000000000000000000000000000000000000000007bffffffffffffffffffffffffffffffffffffffffffffffffffffffff1916827bffffffffffffffffffffffffffffffffffffffffffffffffffffffff1916145b8061045a575061045982610d56565b5b9050919050565b60606000805461047090612a8e565b80601f016020809104026020016040519081016040528092919081815260200182805461049c90612a8e565b80156104e95780601f106104be576101008083540402835291602001916104e9565b820191906000526020600020905b8154815290600101906020018083116104cc57829003601f168201915b5050505050905090565b60006104fe82610dc0565b61053d576040517f08c379a000000000000000000000000000000000000000000000000000000000815260040161053490612758565b60405180910390fd5b6004600083815260200190815260200160002060009054906101000a900473ffffffffffffffffffffffffffffffffffffffff169050919050565b60006105838261079a565b90508073ffffffffffffffffffffffffffffffffffffffff168373ffffffffffffffffffffffffffffffffffffffff1614156105f4576040517f08c379a00000000000000000000000000000000000000000000000000000000081526004016105eb906127f8565b60405180910390fd5b8073ffffffffffffffffffffffffffffffffffffffff16610613610e2c565b73ffffffffffffffffffffffffffffffffffffffff16148061064257506106418161063c610e2c565b610bca565b5b610681576040517f08c379a000000000000000000000000000000000000000000000000000000000815260040161067890612698565b60405180910390fd5b61068b8383610e34565b505050565b610698610e2c565b73ffffffffffffffffffffffffffffffffffffffff166106b661098c565b73ffffffffffffffffffffffffffffffffffffffff161461070c576040517f08c379a000000000000000000000000000000000000000000000000000000000815260040161070390612778565b60405180910390fd5b6107168282610eed565b5050565b61072b610725610e2c565b82610f61565b61076a576040517f08c379a000000000000000000000000000000000000000000000000000000000815260040161076190612818565b60405180910390fd5b61077583838361103f565b505050565b61079583838360405180602001604052806000815250610a5e565b505050565b6000806002600084815260200190815260200160002060009054906101000a900473ffffffffffffffffffffffffffffffffffffffff169050600073ffffffffffffffffffffffffffffffffffffffff168173ffffffffffffffffffffffffffffffffffffffff161415610843576040517f08c379a000000000000000000000000000000000000000000000000000000000815260040161083a906126d8565b60405180910390fd5b80915050919050565b60008073ffffffffffffffffffffffffffffffffffffffff168273ffffffffffffffffffffffffffffffffffffffff1614156108bd576040517f08c379a00000000000000000000000000000000000000000000000000000000081526004016108b4906126b8565b60405180910390fd5b600360008373ffffffffffffffffffffffffffffffffffffffff1673ffffffffffffffffffffffffffffffffffffffff168152602001908152602001600020549050919050565b61090c610e2c565b73ffffffffffffffffffffffffffffffffffffffff1661092a61098c565b73ffffffffffffffffffffffffffffffffffffffff1614610980576040517f08c379a000000000000000000000000000000000000000000000000000000000815260040161097790612778565b60405180910390fd5b61098a600061129b565b565b6000600760009054906101000a900473ffffffffffffffffffffffffffffffffffffffff16905090565b6060600180546109c590612a8e565b80601f01602080910402602001604051908101604052809291908181526020018280546109f190612a8e565b8015610a3e5780601f10610a1357610100808354040283529160200191610a3e565b820191906000526020600020905b815481529060010190602001808311610a2157829003601f168201915b5050505050905090565b610a5a610a53610e2c565b8383611361565b5050565b610a6f610a69610e2c565b83610f61565b610aae576040517f08c379a0000000000000000000000000000000000000000000000000000000008152600401610aa590612818565b60405180910390fd5b610aba848484846114ce565b50505050565b6060610acb8261152a565b9050919050565b610ada610e2c565b73ffffffffffffffffffffffffffffffffffffffff16610af861098c565b73ffffffffffffffffffffffffffffffffffffffff1614610b4e576040517f08c379a0000000000000000000000000000000000000000000000000000000008152600401610b4590612778565b60405180910390fd5b6000610b598361084c565b14610b99576040517f08c379a0000000000000000000000000000000000000000000000000000000008152600401610b90906127d8565b60405180910390fd5b6000610ba5600861167c565b9050610bb1600861168a565b610bbb83826116a0565b610bc58183610eed565b505050565b6000600560008473ffffffffffffffffffffffffffffffffffffffff1673ffffffffffffffffffffffffffffffffffffffff16815260200190815260200160002060008373ffffffffffffffffffffffffffffffffffffffff1673ffffffffffffffffffffffffffffffffffffffff16815260200190815260200160002060009054906101000a900460ff16905092915050565b610c66610e2c565b73ffffffffffffffffffffffffffffffffffffffff16610c8461098c565b73ffffffffffffffffffffffffffffffffffffffff1614610cda576040517f08c379a0000000000000000000000000000000000000000000000000000000008152600401610cd190612778565b60405180910390fd5b600073ffffffffffffffffffffffffffffffffffffffff168173ffffffffffffffffffffffffffffffffffffffff161415610d4a576040517f08c379a0000000000000000000000000000000000000000000000000000000008152600401610d41906125f8565b60405180910390fd5b610d538161129b565b50565b60007f01ffc9a7000000000000000000000000000000000000000000000000000000007bffffffffffffffffffffffffffffffffffffffffffffffffffffffff1916827bffffffffffffffffffffffffffffffffffffffffffffffffffffffff1916149050919050565b60008073ffffffffffffffffffffffffffffffffffffffff166002600084815260200190815260200160002060009054906101000a900473ffffffffffffffffffffffffffffffffffffffff1673ffffffffffffffffffffffffffffffffffffffff1614159050919050565b600033905090565b816004600083815260200190815260200160002060006101000a81548173ffffffffffffffffffffffffffffffffffffffff021916908373ffffffffffffffffffffffffffffffffffffffff160217905550808273ffffffffffffffffffffffffffffffffffffffff16610ea78361079a565b73ffffffffffffffffffffffffffffffffffffffff167f8c5be1e5ebec7d5bd14f71427d1e84f3dd0314c0f7b2291e5b200ac8c7c3b92560405160405180910390a45050565b610ef682610dc0565b610f35576040517f08c379a0000000000000000000000000000000000000000000000000000000008152600401610f2c906126f8565b60405180910390fd5b80600660008481526020019081526020016000209080519060200190610f5c929190611d01565b505050565b6000610f6c82610dc0565b610fab576040517f08c379a0000000000000000000000000000000000000000000000000000000008152600401610fa290612678565b60405180910390fd5b6000610fb68361079a565b90508073ffffffffffffffffffffffffffffffffffffffff168473ffffffffffffffffffffffffffffffffffffffff16148061102557508373ffffffffffffffffffffffffffffffffffffffff1661100d846104f3565b73ffffffffffffffffffffffffffffffffffffffff16145b8061103657506110358185610bca565b5b91505092915050565b8273ffffffffffffffffffffffffffffffffffffffff1661105f8261079a565b73ffffffffffffffffffffffffffffffffffffffff16146110b5576040517f08c379a00000000000000000000000000000000000000000000000000000000081526004016110ac90612798565b60405180910390fd5b600073ffffffffffffffffffffffffffffffffffffffff168273ffffffffffffffffffffffffffffffffffffffff161415611125576040517f08c379a000000000000000000000000000000000000000000000000000000000815260040161111c90612638565b60405180910390fd5b6111308383836116be565b61113b600082610e34565b6001600360008573ffffffffffffffffffffffffffffffffffffffff1673ffffffffffffffffffffffffffffffffffffffff168152602001908152602001600020600082825461118b91906129a4565b925050819055506001600360008473ffffffffffffffffffffffffffffffffffffffff1673ffffffffffffffffffffffffffffffffffffffff16815260200190815260200160002060008282546111e2919061291d565b92505081905550816002600083815260200190815260200160002060006101000a81548173ffffffffffffffffffffffffffffffffffffffff021916908373ffffffffffffffffffffffffffffffffffffffff160217905550808273ffffffffffffffffffffffffffffffffffffffff168473ffffffffffffffffffffffffffffffffffffffff167fddf252ad1be2c89b69c2b068fc378daa952ba7f163c4a11628f55a4df523b3ef60405160405180910390a4505050565b6000600760009054906101000a900473ffffffffffffffffffffffffffffffffffffffff16905081600760006101000a81548173ffffffffffffffffffffffffffffffffffffffff021916908373ffffffffffffffffffffffffffffffffffffffff1602179055508173ffffffffffffffffffffffffffffffffffffffff168173ffffffffffffffffffffffffffffffffffffffff167f8be0079c531659141344cd1fd0a4f28419497f9722a3daafe3b4186f6b6457e060405160405180910390a35050565b8173ffffffffffffffffffffffffffffffffffffffff168373ffffffffffffffffffffffffffffffffffffffff1614156113d0576040517f08c379a00000000000000000000000000000000000000000000000000000000081526004016113c790612658565b60405180910390fd5b80600560008573ffffffffffffffffffffffffffffffffffffffff1673ffffffffffffffffffffffffffffffffffffffff16815260200190815260200160002060008473ffffffffffffffffffffffffffffffffffffffff1673ffffffffffffffffffffffffffffffffffffffff16815260200190815260200160002060006101000a81548160ff0219169083151502179055508173ffffffffffffffffffffffffffffffffffffffff168373ffffffffffffffffffffffffffffffffffffffff167f17307eab39ab6107e8899845ad3d59bd9653f200f220920489ca2b5937696c31836040516114c1919061259b565b60405180910390a3505050565b6114d984848461103f565b6114e5848484846116c3565b611524576040517f08c379a000000000000000000000000000000000000000000000000000000000815260040161151b906125d8565b60405180910390fd5b50505050565b606061153582610dc0565b611574576040517f08c379a000000000000000000000000000000000000000000000000000000000815260040161156b90612738565b60405180910390fd5b600060066000848152602001908152602001600020805461159490612a8e565b80601f01602080910402602001604051908101604052809291908181526020018280546115c090612a8e565b801561160d5780601f106115e25761010080835404028352916020019161160d565b820191906000526020600020905b8154815290600101906020018083116115f057829003601f168201915b50505050509050600061161e61185a565b9050600081511415611634578192505050611677565b600082511115611669578082604051602001611651929190612510565b60405160208183030381529060405292505050611677565b61167284611871565b925050505b919050565b600081600001549050919050565b6001816000016000828254019250508190555050565b6116ba828260405180602001604052806000815250611918565b5050565b505050565b60006116e48473ffffffffffffffffffffffffffffffffffffffff16611973565b1561184d578373ffffffffffffffffffffffffffffffffffffffff1663150b7a0261170d610e2c565b8786866040518563ffffffff1660e01b815260040161172f949392919061254f565b602060405180830381600087803b15801561174957600080fd5b505af192505050801561177a57506040513d601f19601f820116820180604052508101906117779190612101565b60015b6117fd573d80600081146117aa576040519150601f19603f3d011682016040523d82523d6000602084013e6117af565b606091505b506000815114156117f5576040517f08c379a00000000000000000000000000000000000000000000000000000000081526004016117ec906125d8565b60405180910390fd5b805181602001fd5b63150b7a0260e01b7bffffffffffffffffffffffffffffffffffffffffffffffffffffffff1916817bffffffffffffffffffffffffffffffffffffffffffffffffffffffff191614915050611852565b600190505b949350505050565b606060405180602001604052806000815250905090565b606061187c82610dc0565b6118bb576040517f08c379a00000000000000000000000000000000000000000000000000000000081526004016118b2906127b8565b60405180910390fd5b60006118c561185a565b905060008151116118e55760405180602001604052806000815250611910565b806118ef84611986565b604051602001611900929190612510565b6040516020818303038152906040525b915050919050565b6119228383611b33565b61192f60008484846116c3565b61196e576040517f08c379a0000000000000000000000000000000000000000000000000000000008152600401611965906125d8565b60405180910390fd5b505050565b600080823b905060008111915050919050565b606060008214156119ce576040518060400160405280600181526020017f30000000000000000000000000000000000000000000000000000000000000008152509050611b2e565b600082905060005b60008214611a005780806119e990612af1565b915050600a826119f99190612973565b91506119d6565b60008167ffffffffffffffff811115611a42577f4e487b7100000000000000000000000000000000000000000000000000000000600052604160045260246000fd5b6040519080825280601f01601f191660200182016040528015611a745781602001600182028036833780820191505090505b5090505b60008514611b2757600182611a8d91906129a4565b9150600a85611a9c9190612b3a565b6030611aa8919061291d565b60f81b818381518110611ae4577f4e487b7100000000000000000000000000000000000000000000000000000000600052603260045260246000fd5b60200101907effffffffffffffffffffffffffffffffffffffffffffffffffffffffffffff1916908160001a905350600a85611b209190612973565b9450611a78565b8093505050505b919050565b600073ffffffffffffffffffffffffffffffffffffffff168273ffffffffffffffffffffffffffffffffffffffff161415611ba3576040517f08c379a0000000000000000000000000000000000000000000000000000000008152600401611b9a90612718565b60405180910390fd5b611bac81610dc0565b15611bec576040517f08c379a0000000000000000000000000000000000000000000000000000000008152600401611be390612618565b60405180910390fd5b611bf8600083836116be565b6001600360008473ffffffffffffffffffffffffffffffffffffffff1673ffffffffffffffffffffffffffffffffffffffff1681526020019081526020016000206000828254611c48919061291d565b92505081905550816002600083815260200190815260200160002060006101000a81548173ffffffffffffffffffffffffffffffffffffffff021916908373ffffffffffffffffffffffffffffffffffffffff160217905550808273ffffffffffffffffffffffffffffffffffffffff16600073ffffffffffffffffffffffffffffffffffffffff167fddf252ad1be2c89b69c2b068fc378daa952ba7f163c4a11628f55a4df523b3ef60405160405180910390a45050565b828054611d0d90612a8e565b90600052602060002090601f016020900481019282611d2f5760008555611d76565b82601f10611d4857805160ff1916838001178555611d76565b82800160010185558215611d76579182015b82811115611d75578251825591602001919060010190611d5a565b5b509050611d839190611d87565b5090565b5b80821115611da0576000816000905550600101611d88565b5090565b6000611db7611db284612878565b612853565b905082815260208101848484011115611dcf57600080fd5b611dda848285612a4c565b509392505050565b6000611df5611df0846128a9565b612853565b905082815260208101848484011115611e0d57600080fd5b611e18848285612a4c565b509392505050565b600081359050611e2f81613157565b92915050565b600081359050611e448161316e565b92915050565b600081359050611e5981613185565b92915050565b600081519050611e6e81613185565b92915050565b600082601f830112611e8557600080fd5b8135611e95848260208601611da4565b91505092915050565b600082601f830112611eaf57600080fd5b8135611ebf848260208601611de2565b91505092915050565b600081359050611ed78161319c565b92915050565b600060208284031215611eef57600080fd5b6000611efd84828501611e20565b91505092915050565b60008060408385031215611f1957600080fd5b6000611f2785828601611e20565b9250506020611f3885828601611e20565b9150509250929050565b600080600060608486031215611f5757600080fd5b6000611f6586828701611e20565b9350506020611f7686828701611e20565b9250506040611f8786828701611ec8565b9150509250925092565b60008060008060808587031215611fa757600080fd5b6000611fb587828801611e20565b9450506020611fc687828801611e20565b9350506040611fd787828801611ec8565b925050606085013567ffffffffffffffff811115611ff457600080fd5b61200087828801611e74565b91505092959194509250565b6000806040838503121561201f57600080fd5b600061202d85828601611e20565b925050602061203e85828601611e35565b9150509250929050565b6000806040838503121561205b57600080fd5b600061206985828601611e20565b925050602083013567ffffffffffffffff81111561208657600080fd5b61209285828601611e9e565b9150509250929050565b600080604083850312156120af57600080fd5b60006120bd85828601611e20565b92505060206120ce85828601611ec8565b9150509250929050565b6000602082840312156120ea57600080fd5b60006120f884828501611e4a565b91505092915050565b60006020828403121561211357600080fd5b600061212184828501611e5f565b91505092915050565b60006020828403121561213c57600080fd5b600061214a84828501611ec8565b91505092915050565b6000806040838503121561216657600080fd5b600061217485828601611ec8565b925050602083013567ffffffffffffffff81111561219157600080fd5b61219d85828601611e9e565b9150509250929050565b6121b0816129d8565b82525050565b6121bf816129ea565b82525050565b60006121d0826128da565b6121da81856128f0565b93506121ea818560208601612a5b565b6121f381612c27565b840191505092915050565b6000612209826128e5565b6122138185612901565b9350612223818560208601612a5b565b61222c81612c27565b840191505092915050565b6000612242826128e5565b61224c8185612912565b935061225c818560208601612a5b565b80840191505092915050565b6000612275603283612901565b915061228082612c38565b604082019050919050565b6000612298602683612901565b91506122a382612c87565b604082019050919050565b60006122bb601c83612901565b91506122c682612cd6565b602082019050919050565b60006122de602483612901565b91506122e982612cff565b604082019050919050565b6000612301601983612901565b915061230c82612d4e565b602082019050919050565b6000612324602c83612901565b915061232f82612d77565b604082019050919050565b6000612347603883612901565b915061235282612dc6565b604082019050919050565b600061236a602a83612901565b915061237582612e15565b604082019050919050565b600061238d602983612901565b915061239882612e64565b604082019050919050565b60006123b0602e83612901565b91506123bb82612eb3565b604082019050919050565b60006123d3602083612901565b91506123de82612f02565b602082019050919050565b60006123f6603183612901565b915061240182612f2b565b604082019050919050565b6000612419602c83612901565b915061242482612f7a565b604082019050919050565b600061243c602083612901565b915061244782612fc9565b602082019050919050565b600061245f602983612901565b915061246a82612ff2565b604082019050919050565b6000612482602f83612901565b915061248d82613041565b604082019050919050565b60006124a5601983612901565b91506124b082613090565b602082019050919050565b60006124c8602183612901565b91506124d3826130b9565b604082019050919050565b60006124eb603183612901565b91506124f682613108565b604082019050919050565b61250a81612a42565b82525050565b600061251c8285612237565b91506125288284612237565b91508190509392505050565b600060208201905061254960008301846121a7565b92915050565b600060808201905061256460008301876121a7565b61257160208301866121a7565b61257e6040830185612501565b818103606083015261259081846121c5565b905095945050505050565b60006020820190506125b060008301846121b6565b92915050565b600060208201905081810360008301526125d081846121fe565b905092915050565b600060208201905081810360008301526125f181612268565b9050919050565b600060208201905081810360008301526126118161228b565b9050919050565b60006020820190508181036000830152612631816122ae565b9050919050565b60006020820190508181036000830152612651816122d1565b9050919050565b60006020820190508181036000830152612671816122f4565b9050919050565b6000602082019050818103600083015261269181612317565b9050919050565b600060208201905081810360008301526126b18161233a565b9050919050565b600060208201905081810360008301526126d18161235d565b9050919050565b600060208201905081810360008301526126f181612380565b9050919050565b60006020820190508181036000830152612711816123a3565b9050919050565b60006020820190508181036000830152612731816123c6565b9050919050565b60006020820190508181036000830152612751816123e9565b9050919050565b600060208201905081810360008301526127718161240c565b9050919050565b600060208201905081810360008301526127918161242f565b9050919050565b600060208201905081810360008301526127b181612452565b9050919050565b600060208201905081810360008301526127d181612475565b9050919050565b600060208201905081810360008301526127f181612498565b9050919050565b60006020820190508181036000830152612811816124bb565b9050919050565b60006020820190508181036000830152612831816124de565b9050919050565b600060208201905061284d6000830184612501565b92915050565b600061285d61286e565b90506128698282612ac0565b919050565b6000604051905090565b600067ffffffffffffffff82111561289357612892612bf8565b5b61289c82612c27565b9050602081019050919050565b600067ffffffffffffffff8211156128c4576128c3612bf8565b5b6128cd82612c27565b9050602081019050919050565b600081519050919050565b600081519050919050565b600082825260208201905092915050565b600082825260208201905092915050565b600081905092915050565b600061292882612a42565b915061293383612a42565b9250827fffffffffffffffffffffffffffffffffffffffffffffffffffffffffffffffff0382111561296857612967612b6b565b5b828201905092915050565b600061297e82612a42565b915061298983612a42565b92508261299957612998612b9a565b5b828204905092915050565b60006129af82612a42565b91506129ba83612a42565b9250828210156129cd576129cc612b6b565b5b828203905092915050565b60006129e382612a22565b9050919050565b60008115159050919050565b60007fffffffff0000000000000000000000000000000000000000000000000000000082169050919050565b600073ffffffffffffffffffffffffffffffffffffffff82169050919050565b6000819050919050565b82818337600083830152505050565b60005b83811015612a79578082015181840152602081019050612a5e565b83811115612a88576000848401525b50505050565b60006002820490506001821680612aa657607f821691505b60208210811415612aba57612ab9612bc9565b5b50919050565b612ac982612c27565b810181811067ffffffffffffffff82111715612ae857612ae7612bf8565b5b80604052505050565b6000612afc82612a42565b91507fffffffffffffffffffffffffffffffffffffffffffffffffffffffffffffffff821415612b2f57612b2e612b6b565b5b600182019050919050565b6000612b4582612a42565b9150612b5083612a42565b925082612b6057612b5f612b9a565b5b828206905092915050565b7f4e487b7100000000000000000000000000000000000000000000000000000000600052601160045260246000fd5b7f4e487b7100000000000000000000000000000000000000000000000000000000600052601260045260246000fd5b7f4e487b7100000000000000000000000000000000000000000000000000000000600052602260045260246000fd5b7f4e487b7100000000000000000000000000000000000000000000000000000000600052604160045260246000fd5b6000601f19601f8301169050919050565b7f4552433732313a207472616e7366657220746f206e6f6e20455243373231526560008201527f63656976657220696d706c656d656e7465720000000000000000000000000000602082015250565b7f4f776e61626c653a206e6577206f776e657220697320746865207a65726f206160008201527f6464726573730000000000000000000000000000000000000000000000000000602082015250565b7f4552433732313a20746f6b656e20616c7265616479206d696e74656400000000600082015250565b7f4552433732313a207472616e7366657220746f20746865207a65726f2061646460008201527f7265737300000000000000000000000000000000000000000000000000000000602082015250565b7f4552433732313a20617070726f766520746f2063616c6c657200000000000000600082015250565b7f4552433732313a206f70657261746f7220717565727920666f72206e6f6e657860008201527f697374656e7420746f6b656e0000000000000000000000000000000000000000602082015250565b7f4552433732313a20617070726f76652063616c6c6572206973206e6f74206f7760008201527f6e6572206e6f7220617070726f76656420666f7220616c6c0000000000000000602082015250565b7f4552433732313a2062616c616e636520717565727920666f7220746865207a6560008201527f726f206164647265737300000000000000000000000000000000000000000000602082015250565b7f4552433732313a206f776e657220717565727920666f72206e6f6e657869737460008201527f656e7420746f6b656e0000000000000000000000000000000000000000000000602082015250565b7f45524337323155524953746f726167653a2055524920736574206f66206e6f6e60008201527f6578697374656e7420746f6b656e000000000000000000000000000000000000602082015250565b7f4552433732313a206d696e7420746f20746865207a65726f2061646472657373600082015250565b7f45524337323155524953746f726167653a2055524920717565727920666f722060008201527f6e6f6e6578697374656e7420746f6b656e000000000000000000000000000000602082015250565b7f4552433732313a20617070726f76656420717565727920666f72206e6f6e657860008201527f697374656e7420746f6b656e0000000000000000000000000000000000000000602082015250565b7f4f776e61626c653a2063616c6c6572206973206e6f7420746865206f776e6572600082015250565b7f4552433732313a207472616e73666572206f6620746f6b656e2074686174206960008201527f73206e6f74206f776e0000000000000000000000000000000000000000000000602082015250565b7f4552433732314d657461646174613a2055524920717565727920666f72206e6f60008201527f6e6578697374656e7420746f6b656e0000000000000000000000000000000000602082015250565b7f5573657220686173206120576f726c6420616c72656164792100000000000000600082015250565b7f4552433732313a20617070726f76616c20746f2063757272656e74206f776e6560008201527f7200000000000000000000000000000000000000000000000000000000000000602082015250565b7f4552433732313a207472616e736665722063616c6c6572206973206e6f74206f60008201527f776e6572206e6f7220617070726f766564000000000000000000000000000000602082015250565b613160816129d8565b811461316b57600080fd5b50565b613177816129ea565b811461318257600080fd5b50565b61318e816129f6565b811461319957600080fd5b50565b6131a581612a42565b81146131b057600080fd5b5056fea26469706673582212207bee4842d625664e0c6d9f07d9f342f7faf91dddce9c8ab39e2f1df94ff7d83d64736f6c63430008040033",
  "linkReferences": {},
  "deployedLinkReferences": {}
}